:020000040800F2
:10000000D006002035020008EB130008C7120008D4
:10001000E91300082B040008E316000800000000A4
:10002000000000000000000000000000EF130008C6
:100030002D04000800000000ED130008F113000873
:100040004F0200084F0200084F0200084F0200084C
:100050004F0200084F0200084F0200084F0200083C
:100060004F0200084F0200084F0200084F0200082C
:100070004F0200084F0200084F0200084F0200081C
:100080004F0200084F0200084F0200080000000065
:100090000000000000000000000000004F02000807
:1000A0004F0200084F0200084F02000885140008A4
:1000B0004F0200084F0200084F0200084F020008DC
:1000C0004F0200084F0200084F0200084F020008CC
:1000D0004F0200084F0200084F0200080000000015
:1000E0004F0200084F0200084F0200080000000005
:1000F0000000000000000000000000004F020008A7
:10010000000000004F0200084F0200084F020008E4
:1001100000000000000000000000000000000000DF
:100120004F0200084F0200084F0200084F0200086B
:100130004F02000800000000000000000000000066
:100140000000000000000000000000004F02000856
:100150004F0200084F0200084F0200084F0200083B
:100160004F0200084F0200080000000000000000DD
:10017000000000000000000000000000000000007F
:10018000000000004F020008000000000000000016
:100190004F02000800F002F800F03CF80AA090E8D6
:1001A000000C82448344AAF10107DA4501D100F032
:1001B00031F8AFF2090EBAE80F0013F0010F18BFC3
:1001C000FB1A43F001031847B81B0000D81B0000BE
:1001D000103A24BF78C878C1FAD8520724BF30C873
:1001E00030C144BF04680C60704700000023002445
:1001F00000250026103A28BF78C1FBD8520728BF37
:1002000030C148BF0B6070471FB501F0A7FD1FBD8F
:1002100010B510BD00F0CFF81146FFF7F5FF01F063
:10022000E3FA00F0EDF803B4FFF7F2FF03BC00F0CF
:10023000F5F800000948804709480047FEE7FEE757
:10024000FEE7FEE7FEE7FEE7FEE7FEE7FEE7FEE786
:1002500004480549054A064B70470000751400081C
:1002600095010008D0000020D0060020D002002018
:10027000D002002053EA020C00F069802DE9F04B17
:100280004FF00006002B1FBFB3FA83F503FA05F405
:1002900024FA05F65E4012BF1643B2FA82F502FA5E
:1002A00005F4C5F120051EBF22FA05FC44EA0C0442
:1002B000203556EA044C4FEA144418BF641C4FF032
:1002C00000084FF00009904271EB030C39D300296C
:1002D00019BFB1FA81F701FA07F6B0FA80F700FA10
:1002E00007F6C7F120071EBF20FA07FC46EA0C06F6
:1002F0002037B6FBF4FCA7EB0507103F07F01F0BF8
:10030000CBF120060CFA0BFB2CFA06F644BFB346E1
:100310000026202FA4BF5E464FF0000B5BEA060CC0
:1003200008BF4FF0010B19EB0B09ABFB027C48EB4C
:100330000608C01B06FB02CC0BFB03CC71EB0C01C7
:10034000C1E70B46024641464846BDE8F08B13B56F
:100350004FF000004FF00001AFF30080BDE81C40FB
:1003600070474FF0000200B5134694469646203978
:1003700022BFA0E80C50A0E80C50B1F12001BFF45E
:10038000F7AF090728BFA0E80C5048BF0CC05DF8C4
:1003900004EB890028BF40F8042B08BF704748BF12
:1003A00020F8022B11F0804F18BF00F8012B704786
:1003B000704770477047754600F02CF8AE46050050
:1003C0006946534620F00700854618B020B5FFF770
:1003D0003FFFBDE820404FF000064FF000074FF010
:1003E00000084FF0000B21F00701AC46ACE8C00953
:1003F000ACE8C009ACE8C009ACE8C0098D4670475C
:1004000010B50446AFF300802046BDE81040FFF76A
:100410000ABF0000004870476C0000200149182006
:10042000ABBEFEE7260002007047FEE7704772B6DB
:10043000FEE700002DE9F84FDFF8B8A10022012403
:1004400003254FF00F090AF1040BAAF1040E00BFB7
:100450000B6804FA02F63340B34273D10F7907F008
:100460000307012F01D0022F16D187684FEA4208F7
:1004700005FA08FC27EA0C07D1F80CC00CFA08FCB6
:100480004CEA070CC0F808C04768B7430E79C6F3BA
:10049000001696403E4346600E79F643B6070DD0EF
:1004A000C768560005FA06FC27EA0C07D1F808C011
:1004B0000CFA06FC4CEA070CC0F80CC00E7906F0EA
:1004C0000306022E10D1D60800EB8608D8F820606B
:1004D00057074FEAD76C09FA0CF7BE430F6907FAC2
:1004E0000CF73743C8F8207006684FEA420C05FA4B
:1004F0000CF7BE430F7907F0030707FA0CF73743F1
:1005000007604E6816F4403F6DD03B4E376847F4A5
:1005100080473760366822F0030706F4804600966D
:10052000364E07EB060CDCF8086897073F0F09FA10
:1005300007F826EA0806DFF8C880404503D14FF0E7
:1005400000081EE04FE0DFF8BC80404502D14FF0CC
:10055000010816E0DFF8B080404502D14FF00208F4
:100560000FE0DFF8A880404502D14FF0030808E013
:10057000DFF89C80404502D14FF0040801E04FF0C5
:10058000070808FA07F848EA0608CCF80888DAF8F5
:1005900000605746D1F804C09E435FEACC2C00D5DA
:1005A0001E433E60DBF800605F46D1F804C09E4306
:1005B0005FEA8C2C00D51E433E60DEF80060774673
:1005C000D1F804C09E435FEA8C3C00D51E433E60D8
:1005D000084F083F3E68D1F804C09E435FEACC3C18
:1005E00000D51E433E60521C102AFFF431AFBDE817
:1005F000F88F0000083C01404438024000300140C0
:10060000000002400004024000080240000C0240CA
:10061000001002400AB1816170470904FBE7000045
:10062000014880687047000000000020024881688F
:100630000278114481607047000000200B4810B51B
:10064000016841F400710160016841F4806101605A
:10065000016841F480710160032000F06FF80F2001
:1006600000F006F800F024F8002010BD003C024025
:1006700070B50D4D04464FF47A712878B1FBF0F057
:100680000A490968B1FBF0F000F0ECFA48B9102C07
:1006900007D200222146501E00F030F800206C6086
:1006A00070BD012070BD0000000000200C00002083
:1006B0000A4808B5016841F480410160006800F40F
:1006C000804000900548001F016841F080510160A2
:1006D000006800F08050009008BD000044380240DF
:1006E000002809DB00F01F02012191404009800031
:1006F00000F1E020C0F8001170470000F0B40E4B8C
:100700001B680C46C3F30223C3F10705042D00D96F
:100710000425191D072901D2002300E0DB1E012654
:1007200006FA05F1491E214099409E40761E16406A
:100730003143F0BC00F0D6BF0CED00E0064900F0FC
:10074000070208684FF6FF03184040EA0220034AF8
:1007500010430860704700000CED00E00000FA054F
:100760002DE9F0470E46050065D0DFF81481D8F872
:100770000000F7B200F00700B04207D288F800701E
:10078000D8F8000000F00700B04254D128683D4C72
:10079000810712D5400703D5206840F4E05020605F
:1007A0002878000703D5206840F460402060206866
:1007B000A96820F0F000084320602878C0072DD0F9
:1007C000304968680839012812D0022813D003285C
:1007D00011D00968890700292DDA216821F0030169
:1007E00001432160FFF71CFF814641F2883A0EE089
:1007F00009688903EFE709688901ECE7FFF710FF53
:10080000A0EB0901514502D90320BDE8F08720681B
:10081000696800F00C00B0EB810FEFD1D8F8001040
:10082000404601F00701B14207D90770006800F0A7
:100830000700B04201D00120E7E72878400705D53E
:100840002068E96820F4E050084320602878000719
:1008500006D52068296920F4604040EAC100206084
:1008600000F018F82168084AC1F30311515CC84030
:100870000649086006480068FFF7FAFE0020C4E752
:10088000003C024008380240701D00080C000020A7
:1008900004000020154810B5006810F00C02144840
:1008A00013D01449042A0FD0082A0ED10F4C241F4C
:1008B0002268236802F03F025B0207D52068C0F37C
:1008C0008810A0FB010106E0084610BD2168C1F3B5
:1008D0008811A1FB00010023FFF7CCFC2168C1F3C4
:1008E0000141491C4900B0FBF1F010BD083802403D
:1008F0000024F40040787D012DE9F84F04006ED00B
:100900002078DFF84C93C007A9F104054AD009F11B
:1009100004000168C1F38101012908D00068C0F317
:10092000810002280AD1D9F80000400206D52868C3
:10093000800337D560680028E1D033E06068B0F507
:10094000803F10D0B0F5A02F286810D020F4803060
:100950002860286820F4802028606068A8B1FFF72C
:100960005FFE06460DE0286840F48030F4E740F46E
:1009700080202860F7E700BFFFF752FE801B642845
:1009800073D828688003F7D50CE0FFF749FE0646C8
:1009900005E000BFFFF744FE801B6428F0D82868FC
:1009A0008003F7D42078DFF8AC8280074FF0000A8C
:1009B0003ED5A748001D016811F00C0F08D0006853
:1009C000C0F3810002280BD1D9F80000400207D4FF
:1009D0002868800716D5E068012800D112E033E1CD
:1009E000E068B8B10120C8F80000FFF719FE06461C
:1009F00005E000BFFFF714FE801B0228C0D828685E
:100A00008007F7D52868216920F0F80040EAC10086
:100A100028600DE0C8F800A0FFF702FE064604E0DB
:100A2000FFF7FEFD801B02281FD828688007F7D437
:100A30002078000722D5864F87486169703771B1E9
:100A400001210160FFF7ECFD064604E0FFF7E8FD39
:100A5000801B022809D838688007F7D50EE0C0F857
:100A600000A0FFF7DDFD064605E082E0FFF7D8FDB8
:100A7000801B02287DD838688007F7D4207840078B
:100A800068D5DFF8CCB100270BF13C0BDBF8000098
:100A9000C0000BD4DBF8001041F08051CBF80010FF
:100AA000DBF80000012700F0805000906B4E3068AA
:100AB000C00510D4306840F480703060FFF7B0FD9E
:100AC000009005E0FFF7ACFD0099401A022850D8CD
:100AD0003068C005F6D55E4EA0686C3601280FD090
:100AE0000528306810D020F001003060306820F018
:100AF00004003060A068B8B1FFF792FD00900FE0ED
:100B0000306840F00100F4E740F004003060F7E79F
:100B1000FFF786FD0099411A41F28830814266D87C
:100B200030688007F4D50EE0FFF77AFD009007E00B
:100B3000FFF776FD0099411A41F28830814256D87C
:100B400030688007F4D42FB1DBF8001021F0805119
:100B5000CBF80010A069C8B33D49091D0968C1F36D
:100B6000810102294AD00228504607D0C8F8600007
:100B700000E03CE0FFF754FD04463BE04746C8F880
:100B80006000FFF74DFD064605E000BFFFF748FD9A
:100B9000801B02282BD828688001F7D4D4E90701EC
:100BA0000843A16A2E4A490802EB0141626A41EA00
:100BB0008211084394F82C1040EA0161C9F8001032
:100BC00001203866FFF72CFD044606E03EE000BF3A
:100BD000FFF726FD001B022809D828688001F7D5F9
:100BE00034E000BFFFF71CFD001B022802D90320E0
:100BF000BDE8F88F28688001F4D427E00128F7D0F9
:100C0000D9F80000E26900F4800191421CD1226A07
:100C100000F03F01914217D147F6C071626A01406E
:100C2000B1EB821F10D1A26A4FF0FF3300F44031C4
:100C300003EB5202B1EB024F06D194F82C1000F0F6
:100C40007060B0EB016F01D00120D1E70020CFE749
:100C50000438024000004742800E474200700040C6
:100C60000000FFFF10B5401EB0F1807F01D30120CE
:100C700010BD4FF0E02460610F21601700F032FDDD
:100C80000020A06107202061002010BD7047704740
:100C900070B590F83C20012A2CD0012480F83C400B
:100CA000022280F83D2003685A689D6822F0700691
:100CB0000A6832435A60104B02689A420ED0B2F171
:100CC000804F0BD00D4B9A4208D00D4B9A4205D065
:100CD0000C4B9A4202D00C4B9A4204D1496825F041
:100CE00080031943916080F83D40002180F83C105A
:100CF000084670BD022070BD0000014000040040A5
:100D000000080040000C00400040014010B5040005
:100D100003D094F83D0010B107E0012010BD002081
:100D200084F83C00204600F01FF8022084F83D00C3
:100D3000211D206800F0ACFB012084F8460084F8F7
:100D40003E0084F83F0084F8400084F8410084F8B5
:100D5000420084F8430084F8440084F8450084F895
:100D60003D00002010BD000010B586B004461421DF
:100D70006846FFF7F6FA17492068884228D11648D6
:100D80000021026842F001020260006800F00100E8
:100D9000059011481438026842F0010202600068B0
:100DA00000F0010005904FF4807000900220CDE922
:100DB00001010120CDE9031069460848FFF73AFB1D
:100DC000002211461B20FFF799FC1B20FFF788FC2F
:100DD00006B010BD0000014044380240000002404F
:100DE00070B5044690F83C000025012817D0012674
:100DF00084F83C60022084F83D002068826822F07C
:100E0000770222F47F4282600868502838D00DDCD7
:100E100020284FD005DC90B3102811D14AE00220E1
:100E200070BD302846D040280AD13BE060282FD042
:100E300070280DD0B0F5805F03D0B0F5005F12D000
:100E4000012584F83D60002084F83C00284670BDF0
:100E5000CB68D1E90121206800F077FB2068816828
:100E600041F0770109E0CB68D1E90121206800F069
:100E70006CFB2068816841F480418160E1E719E002
:100E8000CA684968206800F0B8FB5021206806E075
:100E9000CA684968206800F0F7FB6021206800F00C
:100EA0005EFBCEE7CA684968206800F0A6FB4021D7
:100EB0002068F4E7226801461046F0E700F066BCBF
:100EC0002DE9F041054690F83C0000260C4601282B
:100ED00010D0012085F83C0072B1042A1CD0082AE9
:100EE0002CD00C2A50D00126002085F83C0030463A
:100EF000BDE8F0810220FBE7D4E90012E36828682E
:100F000000F08CFB2868816921F00C018161286860
:100F10008169A26811430FE0D4E90012E3682868F0
:100F200000F0C4FB2868816921F440618161286870
:100F30008169A26841EA02218161D5E72868D4E984
:100F4000002C277B036A016A21F480710162C16968
:100F500023F4206321F0030141EA0C0121F0F00C9D
:100F600039074FF420674CEA116107EA02221A435D
:100F7000C16102622868C16921F00C01C161286861
:100F8000C169A26811432BE02868D4E90021E76811
:100F9000036AD0F820C02CF4805CC0F820C0D0F8E0
:100FA0001CC023F420432CF4407C4CEA012121F4A2
:100FB000704C4FF6FF7101EA07314FF4204741EAC8
:100FC0000C0107EA02321A43C16102622868C16952
:100FD00021F44061C1612868C169A26841EA022127
:100FE000C16181E710B5040003D094F83D0010B151
:100FF00007E0012010BD002084F83C00204600F0EE
:101000001EF8022084F83D00211D206800F040FAFF
:10101000012084F8460084F83E0084F83F0084F8FC
:10102000400084F8410084F8420084F8430084F8CA
:10103000440084F8450084F83D00002010BD70474E
:1010400030B50446002551B104290DD0082910D02F
:1010500094F8412094F84500012A11D10EE094F84B
:101060003E2094F84200F7E794F83F2094F84300BC
:10107000F2E794F8402094F84400EDE7012801D00D
:10108000012030BD022059B1042912D0082919D0FD
:1010900084F8410084F845000C293ED001253AE04F
:1010A00084F83E0084F842002068C26842F00202E0
:1010B00010E084F83F0084F843002068C26842F0E2
:1010C000040207E084F8400084F844002068C26805
:1010D00042F00802C2600122206800F029FA11499A
:1010E000206888420ED0B0F1804F0BD00E49884264
:1010F00008D00E49884205D00D49884202D00D49DA
:10110000884204D1816801F00701062903D00168F3
:1011100041F001010160284630BD2068C26842F0FC
:101120001002D7E700000140000400400008004022
:10113000000C0040004001402DE9F04104460068E9
:10114000C66805694FF00007A90713D5B10711D587
:10115000F91E016101202077206880698007204600
:1011600002D0FFF7ABFE04E000F07EF8204600F06E
:101170007CF82777680716D5700714D521686FF0BB
:1011800004000861022020772068806910F4407F05
:10119000204602D0FFF792FE04E000F065F82046FA
:1011A00000F063F82777280715D5300713D5216895
:1011B0006FF008000861042020772068C06980076C
:1011C000204602D0FFF77AFE04E000F04DF82046FA
:1011D00000F04BF82777E80616D5F00614D52168FD
:1011E0006FF010000861082020772068C06910F4B3
:1011F000407F204602D0FFF761FE04E000F034F8A3
:10120000204600F032F82777E80708D0F00706D02C
:1012100021686FF001000861204600F027F82806D9
:1012200008D5300606D521686FF080000861204699
:10123000FFF72CFD680608D5700606D521686FF00B
:1012400040000861204600F03DF8A8060AD5B00627
:1012500008D521686FF0200008612046BDE8F04104
:10126000FFF715BDBDE8F08170477047704770B556
:10127000044690F83C00012812D0012584F83C5027
:10128000022084F83D00204600F071F901004FF083
:10129000000007D084F83D5084F83C00012070BD68
:1012A000022070BD2168CA6822F04002CA6021682D
:1012B000CA6822F48042CA6084F83D5084F83C0039
:1012C000002070BD7047FEE770B586B014216846F7
:1012D000FFF747F80E480024016841F00101016062
:1012E00000680C4E00F001004FF400750590224696
:1012F00029463046FFF78EF901200095CDE901041B
:10130000694630460394FFF795F806B070BD0000BB
:10131000303802400000024010B590B0002409941B
:101320000A940B94142104A80C94FFF71AF82D4882
:101330000D940E9400940194029429490394016041
:101340000F21C0E901144FF6FF71C0E90314446195
:101350008461FFF7DBFC08B1FFF769F84FF48050B8
:10136000099009A91F48FFF73BFD08B1FFF75FF897
:101370001C48FFF737FE08B1FFF759F80420049026
:101380005020CDE9050404A916480894FFF76FFF23
:1013900008B1FFF74CF80D940DA912480E94FFF711
:1013A00077FC08B1FFF743F80120CDE90040029433
:1013B000002269460B480394FFF782FD08B1FFF74E
:1013C00036F8022000900190042269460548FFF794
:1013D00077FD002801D0FFF72AF810B010BD0000FB
:1013E0000000014024000020FEE7FEE77047704740
:1013F000FFF71CB910B592B030216846FEF7B1FF77
:1014000014210CA8FEF7ADFF18480024016841F034
:1014100080510160006800F080501190144801680C
:1014200021F4404141F4004101600068069400F459
:101430004040119002200090012003901020049061
:101440006846FFF759FA08B172B6FEE70F20CDE9FA
:101450000C040E940F9400210CA81094FFF780F94F
:10146000002801D072B6FEE712B010BD403802402D
:10147000007000400248016841F47001016070474B
:1014800088ED00E00148FFF757BE0000240000206F
:10149000F0B502681F4B204C204D214E4FF0804C80
:1014A000984207D0604505D0A04203D0A84201D0A1
:1014B000B04203D122F070074A683A43984210D0F4
:1014C00060450ED0A0420CD0A8420AD0B04208D04D
:1014D000144CA04205D0144CA04202D0134CA042A0
:1014E00003D122F44074CA6822434C6922F080027E
:1014F00022438C68C4620C688462984201D10969F5
:101500000163016841F00401016001214161026051
:10151000F0BD000000000140000400400008004051
:10152000000C0040004001400044014000480140E0
:1015300010B501F01F030121046A99408C43046235
:10154000016A9A401143016210BD10B5846842EAF5
:10155000032224F47F440A432243826010BD826840
:1015600022F070020A4342F007018160704770B5B3
:10157000036800249A6822F070054A682A4322F022
:1015800007050A682A439A604A6812F00F0F31D1A2
:101590001211082A2ED2DFE802F02E2E2E2E0B2159
:1015A00027040B69D1E902210068FFF7CEFF22E092
:1015B0000A68052A10D00268136A156A25F0010529
:1015C000156202689569096925F0F00545EA01117F
:1015D0009161006803620EE0012070BD0A698968AC
:1015E000006800F00AF806E00A698968006800F0FF
:1015F0004BF800E00124204670BD10B5036A046A70
:1016000024F001040462846924F0F00444EA021422
:1016100023F00A020A438461026210BD70B5056AB4
:10162000046A24F0010404628469124EB0420ED0B0
:10163000B0F1804F0BD0104EB04208D00F4EB042E8
:1016400005D00F4EB04202D00E4EB04203D124F06E
:101650000304144301E044F001041A0724F0F004E9
:1016600044EA126225F00A0301F00A01194382617B
:10167000016270BD0000014000040040000800400D
:10168000000C00400040014010B5036A046A24F0D9
:1016900010040462846923F0A00324F4704444EA33
:1016A000023243EA01118261016210BD30B5046A61
:1016B000056A25F010050562856925F4407545EA3F
:1016C000022222F470454FF6FF7202EA033224F040
:1016D000A0032A43A02404EA011119438261016294
:1016E00030BDFEE70907090E002804DB00F1E02009
:1016F00080F80014704700F00F0000F1E02080F83F
:10170000141D704710B504464FF47A70844204D912
:10171000FFF7F8FFA4F57A74F6E74FF0E021886947
:10172000074A084B1268B2FBF3F202FB1402824232
:1017300002D98B698342FCD388699042FCD810BDE2
:101740000C00002040420F0010B52DED028B00F080
:10175000F3F941EC180B0A48C06800F0EDF99FED71
:10176000091B53EC112B00F0FBF953EC182B00F084
:101770008BF800F057F8BDEC028B00EE100A10BD9C
:101780001000002000000000C0BAD04006490268E6
:101790004B681B689A4206D1007F022803D1906BE8
:1017A000C86001200861704710000020034BC3E9A6
:1017B00001011A800421FFF743BC00001000002043
:1017C00010B5084C01222188A068FEF723FF0A20EB
:1017D000FFF798FF2188A068BDE810400022FEF7BF
:1017E00019BF00001000002008B5FEF727FFFFF723
:1017F00001FEFFF769FDFFF78FFD4FF40072064908
:101800000648FFF7D3FF064CFFF7DAFF2046FFF745
:101810009BFF8DED000AF7E7000002402400002046
:1018200040420F0021F00042A2F16052B2F5801F49
:1018300001F0004328BFD2F17F6C0BD95FEA001C96
:1018400043EAC20242EB507018BF704728BF20F035
:1018500001007047B2F5801FBCBF184670474FEAC1
:10186000410C1CF5001F02D2084600F07CBA70B58E
:1018700000F020FA00000089FFF7F6BF4FF00040AB
:10188000A0F58000704700002DE9C04130B4DFF8BA
:10189000A0C23CEA111418BF3CEA131400F0EC801B
:1018A00081EA03051CEA111444EAD57418BF1CEA46
:1018B000131500F0C780A4EB05044FF0004545EA7E
:1018C000C12145EAC32341EA505143EA525304F18E
:1018D0007F74994204F500344FEAC0204FEAC222D7
:1018E00008BF904200F09C804FEA13650FF240164B
:1018F000765D4FEA134506FB05F7C7F1807706FBD7
:1019000007F74FEAD737A7FB03687642C8F5803858
:10191000A7FB06CE38BFA8F1010807FB08E64FF089
:10192000000EA6FB028CE6FB03CEDCF1000CCEF130
:10193000004E38BFAEF1010EA6FB0C584FF0000769
:101940004FF00005E6FB0E87A1FB08C6A0FB07CE03
:1019500016EB0E0645F10005E1FB076515F1E04EBB
:101960007EBFA4F580345FEA46066D4116F180071C
:1019700045F100054FEA17274FEA066647EA056773
:10198000A6F1DE46B6F1805F4FEA15251FD938462D
:1019900024F0010C05EBC471BCF1FE6F01EB0C11DE
:1019A00002D8F0BCBDE8008124425CBF01F5801E76
:1019B0009EEAC47F02D4F0BCBDE80081244238D442
:1019C000F0BCA1F1C041BDE8004100F0C1B94FEA4F
:1019D000D22242EA43524FEAD323A7FB02864FEAC0
:1019E000D02040EA415007FB03661EEA0E0F4FEA83
:1019F000D12105FB026658BFA6EB0056B6EB005698
:101A00004FEA520E4EEAC37E18EB0E0E56EB530E03
:101A1000BDD518EB02085E417F1C55F10005B6E705
:101A20004FF480154FF000074FF000064FF000080C
:101A3000ADE7F0BC4FF0000001F1C04101F0004102
:101A4000BDE8008111EA0C1F0CEA131500D00CE070
:101A500013EA0C1F00F025804FF00000F0BC81EA73
:101A6000030101F00041BDE80081F0BCBDE8004188
:101A700081EA030100F06CB9F0BCBDE8004170B52B
:101A800000F018F9097EFC3E00F007B881EA030176
:101A90004FF0000001F00041704781EA030100F0BF
:101AA00057B9F0BCBDE800414FF000002149704734
:101AB000FFFDFBF9F7F5F4F2F0EEEDEBE9E8E6E413
:101AC000E3E1E0DEDDDBDAD8D7D5D4D3D1D0CFCD9A
:101AD000CCCBCAC8C7C6C5C4C2C1C0BFBEBDBCBBD3
:101AE000BAB9B8B7B6B5B4B3B2B1B0AFAEADACABCE
:101AF000AAA9A8A8A7A6A5A4A3A3A2A1A09F9F9EA8
:101B00009D9C9C9B9A999998979796959594939359
:101B1000929191908F8F8E8E8D8C8C8B8B8A8989F0
:101B20008888878786858584848383828281818073
:101B30000000FF070000F87FB0FA80F310FA03F10D
:101B40000AD0C3F11D0303F580634FEA41504FEA09
:101B5000035202EBD12170474FF0000070470000A4
:101B6000DFF848C170B51CEA111E1EBF1CEA131530
:101B70009EEA0C0F95EA0C0F00F06F8081EA0304D7
:101B800023EA4C134EEAD47E21EA4C1141F4801131
:101B900043F48013AE44A1FB024CA0FB0365AEF1FD
:101BA0007F7E361955EB0C05A1FB034C4CF100036D
:101BB000A0FB021C16EB0C06654153F10003094221
:101BC00018BF46F0010613F4007F0BD14FEA033132
:101BD0004FEA0530340341EA155140EA16506FF0E0
:101BE00003020AE04FEAC3214FEAC520F40241EAAA
:101BF000555140EA56506FF0020202EB2E4201EBC3
:101C0000025585EACE710AD05FEA440C18BF24F071
:101C1000004450F1000041F1000120EAD47040F28C
:101C2000FE7C624500D270BDA84214BF4FF08044D4
:101C30004FF04044002E08BF0024BEF1806FA8BFC3
:101C4000A1F1C041BDE8704080F282804FF00000F9
:101C500001F1C04101F0004170479EEA0C0F0CEA0F
:101C6000131518BF95EA0C0F06D04FF0000081EA5B
:101C7000030E0EF0004170BD00F01CF88900013E1B
:101C800000F007B800F009B84FEA430C5FEA5C5C6B
:101C900008D081EA030100F05BB84FEA410C5FEA2B
:101CA0005C5CF6D14FF00000014970470000FF076F
:101CB0000000F87F0EF1020E2EF0030E5EF8046BAA
:101CC000364205D4012A43EB030515F5001F12D84F
:101CD000012841EB010C1CF5001F0CD80ED14FEA76
:101CE000D17C15F5001F0CEB4C0C0CF1020C08BF5D
:101CF0004CEBD37C04E04FF0080C01E04FEAD37CBE
:101D00000CEB4C0526FA05F606F00706B6F1040CB6
:101D100006D20EEB860CBDE870404CF0010C60471B
:101D2000DFE80CF0090B02024FF000414FF0000019
:101D3000A1F5002170BD19461046012851EB0104A0
:101D400018BFD4F5001484BF002001F0004170BD1D
:101D50000808A0F500114FEA310170474FF04070BC
:101D6000E1EE100A7047FF2141EAD050C0057047EC
:101D7000000000000000000001020304060708093B
:101D8000A01D00080000002024000000D001000871
:101D9000C41D000824000020AC060000EC0100086F
:101DA0000100000010000000000000000024F4000A
:101DB0000000000000000000000000000000000023
:041DC000000000001F
:040000050800019559
:00000001FF
